:020000040800F2
:10000000308C002045010008D32A00088120000818
:10001000D12A0008ED080008D12E000800000000D9
:10002000000000000000000000000000D72A0008C7
:100030009D09000800000000D52A0008D92A000800
:100040005F0100085F0100085F0100085F01000810
:100050005F0100085F0100085F0100085F01000800
:100060005F0100085F0100085F0100085F010008F0
:100070005F0100085F0100085F0100085F010008E0
:100080005F0100085F0100085F0100085F010008D0
:100090005F010008F10800085F010008A7090008D7
:1000A0005F0100085F0100085F0100085F010008B0
:1000B0005F010008752B00085F0100085F01000860
:1000C0005F0100085F0100085F0100085F01000890
:1000D0005F010008B92E0008C52E00085F01000866
:1000E0009F0900085F0100085F0100085F01000828
:1000F0005F0100085F0100085F0100085F01000860
:100100005F0100085F0100085F0100085F0100084F
:100110005F0100085F0100085F0100085F0100083F
:100120005F0100085F0100085F0100085F0100082F
:10013000DFF80CD000F0F0FA004800474134000826
:10014000308C00200648804706480047FEE7FEE75F
:10015000FEE7FEE7FEE7FEE7FEE7FEE7FEE7FEE777
:100160002D2B000831010008202A04DB203A21FA57
:1001700002F00021704721FA02F3D040C2F12002C0
:10018000914008431946704740EA01039B0703D09A
:1001900009E008C9121F08C0042AFAD203E011F8C6
:1001A000013B00F8013B521EF9D27047D2B201E088
:1001B00000F8012B491EFBD270470022F6E710B56C
:1001C00013460A4604461946FFF7F0FF204610BDC5
:1001D00030B505462A460B4612F8010B13F8014BC1
:1001E00008B1A042F8D01CB1002802D06D1CF1E784
:1001F000284630BD421C10F8011B0029FBD1801A93
:100200007047034611F8012B00F8012B002AF9D1A1
:10021000184670472DE9FE4F804681EA0300C00F63
:100220000C46009021F0004123F00045B8EB02009D
:10023000A94105D24046214690461C460B4602463F
:1002400023F00040104347D0270DC7F30A00C3F343
:100250000A510290401A019040286BDAC3F3130050
:1002600040F4801B0098924620B10023D2EB030A91
:1002700063EB0B0B01985946C0F14002504600F069
:100280002FF906460D4650465946019A00F037F9B7
:1002900010EB08006141002487EA115284EAE773F9
:1002A0001A4340D0009A62B3019A012A4FEA0752DA
:1002B00015DC001B61EB02014FF0004202EA07521D
:1002C000CDE90042001C41F5801132462B4600F07A
:1002D00037F903B0BDE8F08F40462146F9E7001B2F
:1002E00061EB0201001C41F5801300185B412018EE
:1002F000A2F5001747EB030140EAD570B6196D412E
:1003000011E06D084FEA360645EAC0754FEA07521C
:10031000001B61EB0201001C41F5801149084FEA06
:1003200030000019514132462B4603B0BDE8F04F72
:1003300000F0F7B80098012240000023D0EB020241
:1003400063EBE073009821464FEAE074B8EB0000DD
:1003500061EB0401E9E783F000435BE781F00041D2
:1003600058E72DE9FE4F81EA030404F0004421F030
:10037000004100944FF0000B23F0004350EA0104C9
:100380005ED052EA03045BD0C3F30A54C1F30A55AA
:100390002C44A4F2F3340194A0FB0254C1F31301E2
:1003A00041F48011C3F3130343F4801301FB0244AF
:1003B00000FB034E840A970A44EA815447EA8357B4
:1003C000A4FB076802958D0A05FB07854FEA932C6D
:1003D00004FB0C542705029D4FEA065847EA1637DE
:1003E000B5EB08056EEB070C870E920E47EA8117F6
:1003F00042EA8312A7FB0201B6EB0B0164EB000497
:100400002B0D43EA0C335E1844EB1C50DA46514680
:10041000E7FB0201C5F313044FEA0B3343EA14531D
:100420004FEA0432019C43EA0603A4F10C0402944F
:10043000009CCDE900B400F083F803B0BDE8F08F74
:1004400000200146F9E70EB5C10F80EAE0700844CC
:10045000CA07002140F233438DE80E000A460B46DE
:1004600000F06EF803B000BD0EB540F233410291CA
:100470000021CDE900110A460B4600F061F803B0F7
:1004800000BDC1F30A5210B5C1F3130140F2FF33AE
:1004900041F480119A4201DA002010BD40F233434A
:1004A0009A42A2F2334203DC5242FFF75DFE10BDD6
:1004B000904010BD30B50B4601460020202201249B
:1004C00009E021FA02F59D4205D303FA02F5491B22
:1004D00004FA02F52844151EA2F10102F1DC30BD38
:1004E000202A04DB203A00FA02F1002070479140F4
:1004F000C2F1200320FA03F3194390407047202AE9
:1005000006DBCB17203A41FA02F043EAE07306E03B
:1005100041FA02F3D040C2F120029140084319464B
:10052000704710B5141E73F1000408DA401C41F145
:10053000000192185B411A4301D120F0010010BD67
:100540002DE9F04D92469B4611B1B1FA81F202E0DD
:10055000B0FA80F220329046FFF7C2FF04460F4601
:1005600040EA0A0041EA0B0153465A46084313D0B9
:10057000114653EA010019D0C8F140025046FFF776
:10058000F3FD05460E46504659464246FFF7A8FF82
:10059000084305D0012004E020463946BDE8F08D2F
:1005A0000020054346EAE0762C4337430A9863056A
:1005B000E40AA0EB08000022FD0A44EA47540A308E
:1005C00002D500200146E9E7010510196941DDE97E
:1005D000084500196941BDE8F04DA2E72DE9F04D4D
:1005E00081EA030404F0004B21F0004514464FF06B
:1005F000000A23F0004150EA050220D054EA01022B
:100600001DD0C5F30A570246C5F31303C1F3130007
:10061000C1F30A5640F4801543F48013A7EB060893
:10062000101BD64608F2FD3873EB050002D308F123
:10063000010801E092185B41B8F1000F03DA0020D5
:100640000146BDE8F08D00204FF480110646844637
:100650000EE0171B73EB050705D3121B63EB0503B5
:1006600006434CEA010C49084FEA300092185B41FE
:1006700050EA0107EDD152EA030012D082EA0400E9
:1006800083EA0501084305D0101BAB4106D20122C5
:10069000002306E000224FF0004302E06FF0010269
:1006A00053101AEB06004CEB085110EB0A0041EB1B
:1006B0000B01BDE8F04DFFF734BF70B521F00043EA
:1006C00003430CD0C1F30A550024D5EB040564EBB9
:1006D0000403D617AD1AB34102DB0020014670BDFA
:1006E000201841EB025170BD30B5041E71F10004B9
:1006F00004DB4FF00044404264EB0101141E73F12F
:10070000000405DB1C464FF00043524263EB040338
:10071000994208BF904230BD064C074D06E0E068A4
:1007200040F0010394E8070098471034AC42F6D338
:10073000FFF702FD6C4800088C4800082DE9F04DD9
:1007400000231A461B1A8A4103DB00200146BDE83C
:10075000F08DC1F30A52C1F3130141F480154FF03B
:10076000000BD10702D100186D41521E002704462C
:1007700040F2FF11384601EB620A3E4680460246CF
:1007800000204FF48011FFF7EFFCC2197141BB1834
:1007900046EB0100B4EB030C75EB000C04D3E41A38
:1007A00065EB000517460E46241908F101006D415E
:1007B00080463428E3DDF91946EB0600091BA84101
:1007C00003D24FF0FF32134601E0002213461BEB29
:1007D000070046EB0A51BDE8F04DFFF7A2BE70B529
:1007E0008C1810F8015B15F0070301D110F8013BDC
:1007F0002A1106D110F8012B03E010F8016B01F863
:10080000016B5B1EF9D12B0705D40023521E0DD4BA
:1008100001F8013BFAE710F8013BCB1A921C03E008
:1008200013F8015B01F8015B521EF9D5A142D8D340
:10083000002070BD2DE9F04707460A24B1FBF4F013
:10084000284D0E46285C01F0F5FB012001F0F2FB7B
:10085000DFF894904FF4805800224146484600F05B
:1008600086FC01224146484600F081FCB6FBF4F0CC
:1008700004FB1060285C01F0DDFB022001F0DAFBD4
:1008800000224146484600F072FC0122414648469B
:1008900000F06DFCB7FBF4F0285C01F0CBFB04200A
:1008A00001F0C8FB00224146484600F060FC0122EE
:1008B0004146484600F05BFCB7FBF4F004FB1070C7
:1008C000285C01F0B7FB082001F0B4FB0022414690
:1008D000484600F04CFC41464846BDE8F04701223E
:1008E00000F045BC30440008000C0140FEE7000069
:1008F000014800F05DB80000487A002070B503465A
:100900000020084C09E013F8016BD5B27540401C7B
:1009100034F8155080B285EA12228842F3D310468B
:1009200070BD00003A4400082DE9F041C0B0904687
:100930000F4605464FF4807611E03446A74200D8B2
:100940003C46224629466846FFF71EFC42462146A1
:100950006846FFF7D3FF8046381B87B22544002F37
:10096000EBD140B04046BDE8F081000070B50020FA
:1009700001F060FB102001F05DFB074D4FF4805447
:1009800000222146284600F0F2FB21462846BDE819
:100990007040012200F0EBBB000C014070474FF4A7
:1009A000806000F0D7BA4FF4007000F0D3BA7047FF
:1009B0002DE9F05F0546006800244669D0F80490F0
:1009C0008768D0F80CB0D0F810A0D0F81880F107E4
:1009D00048D0F90714D001218160B80703D5284613
:1009E00000F0B6F90CE0780702D54FF4006407E098
:1009F000380702D54FF4805402E0284600F0A7F9EA
:100A0000F80516D529684FF480708860B80503D5BD
:100A1000284600F09FF90CE0780502D544F4005414
:100A200007E0380502D544F4804402E0284600F08F
:100A300090F9F80316D529684FF480308860B80320
:100A400003D5284600F088F90CE0780302D544F479
:100A5000004407E0380302D544F4803402E028461D
:100A600000F079F9300707D55FEACB6004D5296833
:100A7000102044F40074C86070074FF0080707D5D1
:100A80005FEA0B7004D52868C760284600F05AF961
:100A9000B00706D52868C068800702D0284600F055
:100AA00052F9700607D55FEACA6004D5296810209C
:100AB00044F480640861B00607D55FEA0A7004D583
:100AC00028680761284600F03FF9F00606D5286837
:100AD0000069800702D0284600F037F9B00308D536
:100AE0005FEAC96005D5296810204860284600F0F3
:100AF0002DF9F00307D55FEA097004D5286847602F
:100B0000284600F02AF9300446D55FEA497040D5FE
:100B1000F00504D55FEAC87001D044F00104B005C7
:100B200004D55FEA887001D544F00204700504D54D
:100B30005FEA487001D544F00404300529D518F067
:100B4000700F26D008F07000402815D006DC102861
:100B500009D020280AD0302816D10AE050280ED01B
:100B6000602811D10EE044F008040DE044F01004B8
:100B70000AE044F0200407E044F0400404E044F0BC
:100B8000800401E044F480742868816921F07001D8
:100B90008161296804204860002C05D0686A2043E0
:100BA00068622846FFF703FFBDE8F09F70B50400B8
:100BB00003D094F8200010B104E0012070BD20465D
:100BC00000F082F82068016821F00201016000F065
:100BD000D3FA0546052604E000F0CEFA401B0A28A9
:100BE00011D8206840688007F6D42068016841F079
:100BF0000101016000F0C0FA05460BE000F0BCFA0C
:100C0000401B0A2806D9606A40F40030606284F80C
:100C10002060D2E720684068C007EFD0207E01281E
:100C2000206801683DD021F080010160607E0128CC
:100C30002068016838D021F040010160A07E0128C1
:100C40002068016833D021F020010160E07E012896
:100C5000206801682ED041F010010160207F01283A
:100C60002068016829D021F008010160607F012817
:100C70002068016824D021F004010160D4E9020158
:100C80000843D4E90412114308436168491E08432C
:100C90002168C86100206062012084F820000020E3
:100CA00070BD41F08001C0E741F04001C5E741F06F
:100CB0002001CAE721F01001CFE741F00801D4E795
:100CC00041F00401D9E7000010B586B00021009181
:100CD0000191029103910068174988422AD117486F
:100CE000C16941F00071C161C16901F000710491F5
:100CF000816941F0040181618069114C00F00400B8
:100D000004904FF4006000906946204600F02EF9F0
:100D1000A014009002200190032003906946204611
:100D200000F024F900221146152000F091FA152058
:100D300000F080FA06B010BD0064004000100240D0
:100D40000008014070477047704770477047704710
:100D50007047704770477047704770472DE9F05FE4
:100D600090F821100024022903D00421816301247A
:100D700085E001680A6822F00E020A6001680A68CC
:100D800022F001020A603F4E3E4FB215DFF8F4C078
:100D9000DFF8F090DFF8ECA0DFF8E8B0DFF8E4E08F
:100DA0000168783F13011502ACF1640CA9F15009F8
:100DB000AAF13C0AABF1280BAEF1140E4FF48018E7
:100DC000B14227D9B9420ED0614512D049451DD054
:100DD000514518D0594518D0714501D1424615E00A
:100DE000294EB14201D1012210E0274E1436B14202
:100DF00001D110220AE0244E2836B14206D0224A00
:100E00003C32914201D11A4600E02A461E49091F90
:100E10000A602BE0B94213D0614517D0494522D072
:100E200051451DD059451DD0714501D142461AE0AA
:100E3000B14202D14FF0807215E0134EB14201D1A0
:100E4000012210E0104E1436B14201D110220AE006
:100E50000D4E2836B14206D00B4A3C32914201D1A8
:100E60001A4600E02A46074980394A60012180F885
:100E70002110002180F82010416B01B188472046E5
:100E8000BDE8F09F800002400804024070B50446AF
:100E900000F072F90546601C02D004480078044452
:100EA00000F06AF9401BA042FAD370BD98020020FE
:100EB0002DE9F0414FF40076234F244D244CB042ED
:100EC00010D13146284600F04DF938724FF47A704F
:100ED000FFF7DCFF3146284600F044F9002830D106
:100EE00001202DE04FF48066B0422AD131462846D9
:100EF00000F038F938720A20FFF7C8FF314628465B
:100F000000F030F990B92078012803D0002103289F
:100F100006D000E001210022114303D0022004E0AA
:100F20000122F9E7022801D1032020704FF46170FB
:100F3000FFF7ACFF3146284600F014F9002800D135
:100F40002070BDE8F081000078020020001C014004
:100F500002000020044910B50A68024202D008606D
:100F6000FFF7A6FF10BD0000140401402DE9F84F63
:100F7000DFF8C891002409F1040A0AF1040B2346A2
:100F80000F270BF1040ED1E00125A54006EA05026A
:100F9000AA4276D1DFF8A8C14E68A6EB0C086645D8
:100FA0002BD00DDC032E34D005DC36B3012E19D046
:100FB000022E2FD11BE0112E16D0122E2AD119E0AD
:100FC000B8F5881F19D006DCB8F5803F15D0B8F504
:100FD000801F1FD111E0B8F5001F0ED0B8F5041F17
:100FE00018D10AE0CB6815E0CB681B1D12E0CB6876
:100FF00008330FE0CB680C330CE08B682BB1012B6E
:101000004FF0080303D0456104E0042302E00561CA
:1010100000E00023FF2A01D8064601E000F10406A3
:101020004FEA840501D9A5F12005D6F8008007FA1A
:1010300005FC28EA0C0803FA05F548EA0508C6F895
:1010400000804D68ED0070D53E4DAE6946F001065A
:10105000AE61AD6924F0030605F0010500953A4D37
:1010600006EB050CDCF80850A607360F07FA06F861
:1010700025EA0805DFF8D480404503D14FF0000889
:1010800025E052E0DFF8C880404502D14FF001086A
:101090001DE0DFF8C080404502D14FF0020816E0A5
:1010A000DFF8B480404502D14FF003080FE0DFF8CD
:1010B000AC80404502D14FF0040808E0DFF8A08082
:1010C000404502D14FF0050801E04FF0060808FA4C
:1010D00006F848EA0508CCF808804D68D9F80060A1
:1010E000ED034D4601D5164300E096432E604D6852
:1010F000DAF80060AD03554601D5164300E096438B
:101100002E604D68DBF80060ED025D4601D51643A8
:1011100000E096432E604D68DEF80060AD02754633
:1011200001D5164300E096432E60641C0A681646FB
:10113000E2407FF429AFBDE8F88F000000040140D1
:1011400000001110001002400000014000080140A2
:10115000000C014000100140001401400018014043
:10116000001C01408068084000D0012070470AB18F
:10117000016170470904FBE701488068704700007F
:10118000980200200248816802781144816070470B
:1011900098020020074810B5016841F01001016075
:1011A000032000F075F8002000F006F800F024F8A5
:1011B000002010BD0020024070B50D4D04464FF4D4
:1011C0007A712878B1FBF0F00A490968B1FBF0F0B8
:1011D00000F0ECFA48B9102C07D200222146501E2C
:1011E00000F036F800206C6070BD012070BD00007A
:1011F00098020020A40200200C4808B5816941F043
:1012000001018161816901F001010091C16941F031
:101210008051C161C06900F080500090044841686D
:1012200021F0E06141F00071416008BD0010024012
:1012300000000140002809DB00F01F02012191405D
:101240004009800000F1E020C0F800117047000064
:10125000F0B40E4B1B680C46C3F30223C3F1070521
:10126000042D00D90425191D072901D2002300E00F
:10127000DB1E012606FA05F1491E214099409E40D9
:10128000761E16403143F0BC01F05CBE0CED00E070
:10129000064900F0070208684FF6FF03184040EACD
:1012A0000220034A10430860704700000CED00E084
:1012B0000000FA052DE9F0470F46050061D0434EC6
:1012C000306800F00700B84209D2306820F007000B
:1012D00038433060306800F00700B84251D12868C8
:1012E0003B4C810712D5400703D5606840F4E060AD
:1012F00060602878000703D5606840F46050606043
:101300006068A96820F0F000084360602878C00792
:1013100028D06868012810D02168022810D08907D9
:1013200000292EDA616821F0030101436160FFF7B3
:1013300023FF804641F288390DE021688903EFE7F9
:101340008901EDE7FFF718FFA0EB0801494502D935
:101350000320BDE8F0876068696800F00C00B0EB1E
:10136000810FEFD1306800F00700B8420BD9306828
:1013700020F0070038433060306800F00700B842C2
:1013800001D00120E5E72878400705D56068E968C5
:1013900020F4E060084360602878000706D56068A4
:1013A000296920F4605040EAC100606000F038F81C
:1013B0006168084AC1F30311515CC84006490860DE
:1013C00006480068FFF7F8FE0020C2E70020024050
:1013D000001002403A460008A40200209C020020AF
:1013E0000448054900684968044AC1F30221515C78
:1013F000C8407047A4020020001002404A4600087E
:101400000448054900684968044AC1F3C221515C97
:10141000C8407047A4020020001002404A4600085D
:1014200012A185B00FC98DE80F0014A0144A0068FE
:1014300004905168134801F00C03042B10D0082BC2
:101440000ED1C1F38343C9031DF803000AD55168C7
:1014500004AAC1F34041515C0A4A5043B0FBF1F089
:1014600005B0704708494843FAE700000203040545
:10147000060708090A0B0C0D0E0F101001020000E0
:101480000010024000127A0000093D002DE9F84FDB
:10149000040070D02078C04DC00749D06868C0F300
:1014A0008100012807D06868C0F38100022809D1B3
:1014B0006868C00306D52868800339D560680028AD
:1014C000E7D035E06068B0F5803F0BD010B1B0F5E3
:1014D000A02F11D0286820F480302860286820F4DC
:1014E000802002E0286840F480302860606890B175
:1014F000FFF742FE06460AE0286840F48020286094
:10150000F0E700BFFFF738FE801B642873D8286817
:101510008003F7D50CE0FFF72FFE064605E000BF7D
:10152000FFF72AFE801B6428F0D828688003F7D4D0
:1015300020789A4E80074FF001094FF0000839D506
:10154000686810F00C0F07D06868C0F381000228AB
:1015500009D16868C00306D42868800714D52069BB
:10156000012808D110E02069B0B1C6F80090FFF75B
:1015700003FE074605E00AE1FFF7FEFDC01B022857
:10158000C4D828688007F7D52868616920F0F8007A
:1015900040EAC10028600DE0C6F80080FFF7ECFDCE
:1015A000074604E0FFF7E8FDC01B022823D828689F
:1015B0008007F7D4207800072CD57948A169D9B1E4
:1015C000C0F80090FFF7D8FD074604E0FFF7D4FD10
:1015D000C01B02280FD8686A8007F7D571484FF4FE
:1015E000FA510068B0FBF1F0009000BF0098411E76
:1015F0000091FAD20EE080E0C0F80080FFF7BCFD59
:10160000074604E0FFF7B8FDC01B022875D8686ADA
:101610008007F7D42078400760D5E8690027C0002C
:1016200008D4E86940F08050E861E869012700F0DB
:10163000805000905C480168C90513D40168834656
:1016400041F480710160FFF797FD824606E000BF1C
:10165000FFF792FDA0EB0A0064284ED8DBF80000EB
:10166000C005F5D5E06801280AD008B1052813D0D7
:10167000286A20F001002862286A20F0040002E0B5
:10168000286A40F001002862E06841F2883B98B186
:10169000FFF772FD82460BE0286A40F004002862E2
:1016A000EEE700BFFFF768FDA0EB0A0159455AD8E5
:1016B000286A8007F6D50CE0FFF75EFD824605E05C
:1016C000FFF75AFDA0EB0A0159454CD8286A80075C
:1016D000F6D41FB1E86920F08050E861E06988B372
:1016E0006968C1F38101022944D00228C6F86080EC
:1016F00004D0FFF741FD044638E034E0FFF73CFD3D
:10170000074604E0FFF738FDC01B02282BD82868E5
:101710008001F7D4206AB0F5803F05D16868A168E0
:1017200020F4003008436860D4E908010843696880
:1017300021F4741108436860C6F86090FFF71CFD3F
:10174000044606E025E000BFFFF716FD001B022857
:1017500009D828688001F7D51BE000BFFFF70CFD12
:10176000001B022802D90320BDE8F88F28688001F9
:10177000F4D40EE00128F7D06868226A00F48031C2
:10178000914204D1616A00F47010884201D00120B6
:10179000EAE70020E8E700000010024000004242B3
:1017A00080044242A40200200070004010B5401E98
:1017B000B0F1807F01D3012010BD4FF0E0246061C3
:1017C0000F21601701F0BEFB0020A06107202061FF
:1017D000002010BD7047704770B590F83C20012A7A
:1017E00019D0012400F83C4F0222427050F83C3CD2
:1017F0005A689D6822F070060A684968324325F0ED
:10180000800529435A6050F83C2C916044700021B7
:101810000170084670BD022070BD10B5040003D0F1
:1018200094F83D0010B107E0012010BD002084F8BD
:101830003C00204600F00CF8022084F83D00211DF9
:10184000206801F09DF9012084F83D00002010BDC2
:1018500008B500680B49884212D10B48C16941F0B4
:101860000201C161C069002200F00200009011462F
:101870001D20FFF7EDFCBDE808401D20FFF7DABC96
:1018800008BD000000040040001002400168CA6862
:1018900042F00102CA600068816801F00701062970
:1018A00003D0016841F0010101600020704770B56C
:1018B000044690F83C00012817D0012584F83C50DC
:1018C000022084F83D002068826822F0770222F42A
:1018D0007F4282600868502830D00DDC20284DD02F
:1018E00005DC98B310283BD148E0022070BD3028B9
:1018F00044D0402834D139E0602828D0702806D060
:10190000B0F5805F2CD0B0F5005F29D10AE0CB683C
:10191000D1E90121206801F079F92068816841F05E
:10192000770109E0CB68D1E90121206801F06EF967
:101930002068816841F48041816011E0CA6849688B
:10194000206801F075F95021206807E016E0CA68A8
:101950004968206801F07DF96021206801F060F994
:1019600084F83D50002084F83C0070BDCA68496886
:10197000206801F05DF940212068EFE72268014608
:101980001046EBE7704770B50446006801694FF0F8
:101990000005C943890715D4C168C943890711D413
:1019A000E91E0161012020772068806980072046B8
:1019B00002D0FFF7E7FF04E000F098F8204600F0BF
:1019C00096F8257720680169C943490717D4C1688B
:1019D000C943490713D46FF0040101610220207745
:1019E0002068806910F4407F204602D0FFF7CAFFCC
:1019F00004E000F07BF8204600F079F825772068B5
:101A00000169C943090716D4C168C943090712D43B
:101A10006FF008010161042020772068C069800709
:101A2000204602D0FFF7AEFF04E000F05FF820464A
:101A300000F05DF8257720680169C943C90617D40D
:101A4000C168C943C90613D46FF0100101610820B1
:101A500020772068C06910F4407F204602D0FFF74D
:101A600091FF04E000F042F8204600F040F82577AE
:101A700020680169C943C90708D1C168C943C907BA
:101A800004D1891E0161204600F032F82068016906
:101A9000C943090609D4C168C943090605D46FF0D2
:101AA000800101612046FFF795FE20680169C94366
:101AB000490609D4C168C943490605D46FF04001FD
:101AC0000161204600F0BEF820680169C94389061B
:101AD0000BD4C168C943890607D46FF020010161A6
:101AE0002046BDE87040FFF776BE70BD7047704776
:101AF0002DE9F04141490068096888427CD1404C99
:101B000001260025A07830B1401CC0B2A070642826
:101B100001D9A5702671E07830B1401CC0B2E070E8
:101B2000642801D9E570667160894FF47A77401CAA
:101B300080B2DFF8D0806081B84201D2002200E09C
:101B4000012204214046FFF712FB6089B0F5FA6FCD
:101B500000D96581208A40F6B831401C80B22082CD
:101B600088421BD9284825820078B8B9A07927A1D6
:101B7000401CC2B2A271274801F0BCF96682254818
:101B8000FEF738FB234982B24FF6FF73A1F5486098
:101B900000F0F2F9A079092800D9A571608AD0B1C6
:101BA000401C80B26082B84207D101221021404619
:101BB000FFF7DDFA18A001F08DF9608AA0F58061C9
:101BC0004C3908D1002210214046FFF7D0FA16A068
:101BD00001F080F965821A48018831B1491C89B247
:101BE0000180B1F5FA7F00D90580A08A41F28831E1
:101BF000884201D2401CA082BDE8F081707A0020AA
:101C000078020020002001400100002073656E640E
:101C100025640000308700206D6375322072657383
:101C200065740D0A000000006D63753220726573E3
:101C3000657420636F6D706C6574650D0A0000003B
:101C4000040000207047704770B5026804461068B1
:101C5000D168536910F00F0F51D003F0010501F462
:101C6000907635435DD0C20705D0CA0503D5E26B37
:101C700042F00102E263420705D5DA0703D0E26BC6
:101C800042F00202E263820705D5DA0703D0E26B75
:101C900042F00402E263020705D5DA0703D0E26BE3
:101CA00042F00802E263E26B002A34D0800604D5D9
:101CB000880602D5204600F0F4FF20684069E16BF9
:101CC000C0F3801001F008010143204624D000F049
:101CD000DAFF2068416949061AD5416921F04001BF
:101CE0004161606BA0B11B494163606BFFF736F83F
:101CF000002810D0606B416BBDE870400847830638
:101D00000FD58B060DD52046BDE8704000F0C9BF49
:101D10002046FFF798FF70BDFFF795FF0020E063B6
:101D200070BD030606D50B0604D52046BDE87040FD
:101D300001F05EB84006F3D54806F1D5D1682046DB
:101D400021F04001D160202184F8391000F071F9B0
:101D500070BD0000772C000870B5040004D094F822
:101D60003900002510B106E0012070BD84F838501C
:101D7000204600F023F8242084F839002068C16848
:101D800021F40051C160204600F0D6FF20680169AF
:101D900021F4904101612068416921F02A014161EB
:101DA0002068C16841F40051C160E563202084F8D7
:101DB000390084F83A00002070BD000070B586B08C
:101DC000002400940194029403942E4E03682E493B
:101DD000022003222D4DB34226D18B6943F4804368
:101DE0008B618B6903F4804304938B6943F0040394
:101DF0008B618969039201F0040104910102CDE92C
:101E0000001069462846FFF7B1F82815CDE900040F
:101E1000694628460294FFF7A9F8002211462520BA
:101E2000FFF716FA252028E0194EB34227D1CB69D7
:101E300043F40033CB61CB6903F4003304938B6923
:101E400043F004038B618969039201F0040104915A
:101E50000421CDE9001069462846FFF787F80820DD
:101E6000CDE90004694628460294FFF77FF8002276
:101E700011462620FFF7ECF92620FFF7DBF906B024
:101E800070BD000000380140001002400008014011
:101E90000044004090F83A30202B22D1F9B1F2B141
:101EA00090F83830012B1CD081628285C2850021D8
:101EB000C163222280F83A2080F838100168CA688D
:101EC00042F48072CA6001684A6942F001024A61C4
:101ED0000068C16841F02001C16000207047012006
:101EE00070470220704700002DE9F0411C4906466A
:101EF000006809680125AF021A4C884210D1A07809
:101F000000B9A570A089B84205D2154A217880325F
:101F10001154401CA081012212491148FFF7BAFF59
:101F20000F49306840310968884217D1E07800B91C
:101F3000E570E089B84205D20B4A61781154401C23
:101F4000E08102E009A000F0C5FFBDE8F0410549CD
:101F500003480122491C4030FFF79CBFBDE8F081D7
:101F6000B07A002078020020307F00206F75742046
:101F700072616E67650000002DE9F843044690F831
:101F800039001F4616460D46202850D1A5B19EB1F6
:101F900094F8380001284AD0012084F838004FF026
:101FA0000008C4F83C80212084F83900FFF7E4F8E9
:101FB000A6848146E68426E00120BDE8F883E08C13
:101FC000401EE084A0684B46B0F5805F4FF00002F1
:101FD0004FF080012046009703D000F03AFFE8B9A7
:101FE0000DE000F036FFC8B928882168C0F308006A
:101FF0004860206908B16D1C05E0AD1C03E0216854
:1020000015F8010B4860E08C0028D8D14B4600221F
:1020100040212046009700F01CFF08B10320CCE7C8
:10202000202084F8390084F838800020C5E7022099
:10203000C3E770472DE9F041104F054600244FF4E7
:1020400000484FF40056002231463846FFF78FF81B
:10205000280601D5012200E0002241463846FFF75C
:1020600086F86806050E012231463846FFF77FF8EC
:10207000641CE4B2082CE6D3BDE8F081000C0140FA
:10208000FEE700002DE9F14FF34C86B00026F34F38
:102090006671607900EBC00101EB001007EB800076
:1020A0006421FEF78AF86079401CC0B26071642830
:1020B000EFD3EB4D6671607900EBC00101EB0010CE
:1020C00005EB80006421FEF778F86079401CC0B20F
:1020D00060710A28EFD33221E248FEF76EF8E1483A
:1020E00032213230FEF769F8DE4832216430FEF7E3
:1020F00064F8DC483221C830FEF75FF8D948322155
:10210000FA30FEF75AF81421D748FEF756F80020A7
:102110006081A081A071A0464FF48061D348FEF792
:102120004CF8D3A1069800F085FA02F001F90128D5
:1021300075D1D2A1069800F07DFACB48D14932384A
:10214000FEF75FF8D0A1069800F074FAC548CD49B3
:102150006430FEF756F8CDA1069800F06BFAC2483D
:10216000C8496438FEF74DF8C9A1069800F062FA34
:10217000C449BC48FEF745F8C6A1BA48FEF728F89E
:10218000DFF8E0B2B94C0BF1640B0BF1640606F119
:1021900032094FF0FF0A28B10123EE22C049CDF8E1
:1021A00000B01FE0BFA1AF48FEF712F8002837D0FB
:1021B00001F046F898F80800454670B1AA4F01238F
:1021C0001437EE2238780090B949A84800F092FE02
:1021D000287A012819D9012012E00123B549EE22FD
:1021E000CDF800B0CDE90169A04800F083FE15E10B
:1021F0009E4A3B5CB0A1104600F07CFE6879401C12
:102200006871297AC0B28842F2D3964B974ACDE9D9
:1022100000696433B3A1104600F06CFEFEE017E1E4
:10222000B9A19048FDF7D4FF00287DD08D496431D5
:1022300001F13200FDF7CCFF002875D18949322227
:10224000643101F13200FDF79FFFB3A1069800F061
:10225000F1F984488B493230FDF7D3FFB0A10698DD
:1022600000F0E8F9002068E000EBC00101EB00108D
:10227000AE4901EB8000AEA100F0DCF902F058F8A5
:1022800088F8020098F8050000EBC00101EB00108F
:10229000A64901EB8000A8A100F0CCF902F048F8B3
:1022A00088F803004FF6FF730922A6A1A848FFF79C
:1022B00063FE98F8020002F073F888F807004FF602
:1022C000FF730A22A3A1A248FFF756FEB8F80A003E
:1022D00098F807301844A8F80A0098F80300B8F8EE
:1022E0000C1083420144A8F80C1012D29CA000905C
:1022F00098F806105B1C01EBC10000EB0110491CB3
:1023000088F8061005EB800098F8022096A100F0EE
:10231000F1FD98F8050098F8073000EBC00101EBDB
:10232000001107EB810000E08BE098F802209BA1F0
:1023300000F0E0FD98F80500401C88F8050098F8CA
:102340000110C0B288428FD3B8F80A00B8F80C1058
:10235000884201D199A103E0D0B1884203D299A16A
:102360004148FDF74EFF4048CDE9029BA0F1FA013C
:10237000CDE900100123EE2296493C48CDE90467DF
:1023800000F0B8FD98F80100012818D901200FE0ED
:1023900091A1E5E700EBC00101EB0011334A07EB27
:1023A000810390A1104600F0A5FD98F80500401C9F
:1023B00088F8050098F80110C0B28842EAD3B8F84E
:1023C0000A00B8F80C10884202D1284A87A122E0FE
:1023D000264A234B8BA1104600F08CFD98F806008E
:1023E000012816D901200DE000EBC00101EB00101F
:1023F0001E4A05EB80037BA1104600F07BFD98F898
:102400000500401C88F8050098F80610C0B2884204
:10241000EAD3164A81A1154800F06CFD1348FDF778
:10242000E9FE401E81B24FF6FF72601CFEF77CFA97
:10243000C2B2CDE9002A0D4A030A7AA1104600F083
:1024400059FD07B00949BDE8F04F79A000F042BD41
:1024500007B0BDE8F08F000048020020704D00205A
:102460008074002068780020947900207049002052
:10247000636162696E65744E6F0000007474696D0B
:1024800065000000F0060020706964007469640053
:10249000636D64006865616C7468436865636B00B4
:1024A000C0470008736C6F74436865636B0000007D
:1024B000604700081448000825732C7B22736C6F5A
:1024C000744E6F223A25642C226661756C745265D5
:1024D00061736F6E223A226469736C6F6361746515
:1024E000227D000025735D2C22706964223A2573D9
:1024F0002C22746964223A25732C227474696D65E8
:10250000223A25737D0000006F7264657250726F0D
:1025100063657373000000006F726465724E6F0034
:102520007265714974656D7300000000F00A002047
:10253000736C6F744E6F00007175616E746974799D
:10254000000000004F70656E52656C6179000000FC
:10255000B07A0020436C6F736552656C617900003E
:1025600074696D656F7574007B22736C6F744E6F48
:10257000223A25642C22657863657074696F6E4F0A
:1025800072646572223A25642C22657863657074E2
:10259000696F6E223A222573227D00007B22736CC4
:1025A0006F744E6F223A25642C22737563636573D2
:1025B0007354696D6573223A25647D007375636396
:1025C000657373007061727469616C5375636365E0
:1025D00073730000E8460008616C6C54696D654FC8
:1025E0007574000025732C257300000025735D2C85
:1025F00022736C6F74457863657074696F6E223AEC
:102600005B5D7D0025735D2C22736C6F7445786370
:10261000657074696F6E223A5B25730025735D7D6A
:10262000000000002573256325632563000000007A
:10263000257300002DE9F05F794C002705462782BD
:1026400067820120A0820E462846FDF7C1FDA061E9
:102650003046FDF7CFFDE062A26901461044837861
:10266000222B7CD05B2B25D07B2B01D0A762B7E03F
:10267000401B801C15E0295C7B2902D12178491C74
:102680002170295C7D2902D12178491E2170654B7A
:10269000218A2A5C5A54491C21822178002908D0B9
:1026A000401CE0812846FDF7A5FD0146E0898142F6
:1026B000E1D8A6E05CA12846FDF78AFDE0618146ED
:1026C000E16AA069594E4218D0787B2821D0921C2B
:1026D00022622771206A606255A1401CFDF778FDD7
:1026E0002062E16988425AD2D0B3616A421A2079E5
:1026F000491C00EBC00303EB001006EB8000521EE8
:10270000FDF742FD2079401CC0B22071A028E1D322
:1027100077E0BB462771A08A618A88423DD0501875
:10272000A182C31CA4F810B04B4536D2401BC01C7C
:10273000E08194F804A0A9EB05071FE02B5C7B2B3C
:1027400002D123785B1C23702B5C7D2B02D1237874
:102750005B1E237015F800C00AEBCA0801E030E0E8
:102760001DE008EB0A1306EB8308238A08F803C070
:102770005B1C238223782BB1401CE081E0898742D7
:10278000DCDC03E0208A0844401C60820AF101007E
:10279000C0B22071A028BED333E020790FE00846F4
:1027A000616A421A2079491C00EBC00303EB001058
:1027B00006EB8000521EFDF7E7FC2079401C60709C
:1027C0001FE01CA1C01CFDF703FDE061A169421AD6
:1027D000E06A121A01441348891C0FE06D1CA562BF
:1027E000A56A561973189B78303B092BF6D9431903
:1027F0005B1C9A1A521A811C0A48E361521EFDF7AB
:10280000C3FC08494FF48064224601F58060FDF75F
:10281000BBFC2146BDE8F05F0248FDF7CEBC0000DE
:1028200048020020F00200205D000000F00A0020B5
:102830002C000000220000000B480A494FF400322F
:1028400001600821416000218160C0E9031252014A
:1028500042610176012242768176C1760177417725
:10286000FEF7A4B900640040487A00202DE9F04F3B
:1028700085B0002000900190029003907548816916
:1028800041F040018161816901F040010491816959
:1028900041F080018161816901F0800104918169C9
:1028A00041F010018161816901F010010491816999
:1028B00041F004018161816901F0040104918169A1
:1028C00041F008018161816901F008010491816989
:1028D00041F480718161816901F4807104918169A1
:1028E00041F0200181618069002200F02000049005
:1028F0004FF6BF715848FEF73AFC41F63F7600228A
:1029000031465648FEF733FC48F2F20700223946BA
:102910005348FEF72CFC4BF6FF7800224146514805
:10292000FEF725FC4FF47849002249464E48FEF751
:102930001EFC4FF60F6A002251464C48FEF717FC6A
:102940004FF6FF7B002259464948FEF710FC4FF630
:10295000BF700124CDE9000400200225CDE9020565
:1029600069463D48FEF702FBFF2000900020CDE9BC
:10297000010469463C48FEF7F9FA4FF4C060009044
:102980003C4801900020029069463748FEF7EEFA75
:10299000002000960395CDE9014069462F48FEF7D7
:1029A000E5FA002000970395CDE9014069462C48DF
:1029B000FEF7DCFA0020CDF800800395CDE9014058
:1029C00069462848FEF7D2FA0020CDF8009003951A
:1029D000CDE9014069462448FEF7C8FA0020CDF849
:1029E00000A00395CDE9014069462048FEF7BEFAF4
:1029F0000020CDF800B00395CDE9014069461C48A0
:102A0000FEF7B4FA4FF4F0700090002001900290AD
:102A100069461648FEF7AAFA1020CDE90004002006
:102A2000CDE9020569461148FEF7A0FA002203210C
:102A30001720FEF70DFC1720FEF7FCFB00220321F8
:102A40002820FEF705FC2820FEF7F4FB05B0BDE8C2
:102A5000F08F0000001002400018014000100140FB
:102A600000080140000C0140001C01400020014012
:102A7000001401400000211010B586B00024134856
:102A8000009401940294039404940F490594016006
:102A90004721C0E9011440F2E731C0E90314846121
:102AA000FEF7BBFE4FF48050009069460748FEF7E2
:102AB000FEFE049404A905480594FEF78DFE034824
:102AC000FEF7E4FE06B010BD00040040707A00205E
:102AD000FEE7704770477047FEF754BB30B58FB0C4
:102AE00028216846FDF769FB14210AA8FDF765FB5C
:102AF00001210804CDE9001000240294022504916C
:102B0000CDE907504FF4E01009906846FEF7BEFC8F
:102B10000F20CDE90A056802CDE90C4002210AA880
:102B20000E94FEF7C7FB0FB030BD00000D480168E2
:102B300041F00101016041680B4A114041600168A8
:102B40000A4A11400160016821F480210160416856
:102B500021F4FE0141604FF41F0181600449C0036C
:102B600008607047001002400000FFF8FFFFF6FE0B
:102B700008ED00E00148FEF706BF0000707A002073
:102B8000F0B502681C4B1D4D1D4E1E4F1E4C4FF0E4
:102B9000804C984209D0A04207D0604505D0A84299
:102BA00003D0B04201D0B84204D122F0700E4A687E
:102BB00042EA0E02984209D0A04207D0604505D0F3
:102BC000A84203D0B04201D0B84203D122F44075EC
:102BD000CA682A434D6922F080022A4302608A684B
:102BE000C2620A688262984201D0A04201D109699A
:102BF000016301214161F0BD002C0140000400404F
:102C000000080040000C00400034014010B584680A
:102C100042EA032224F47F440A432243826010BD27
:102C2000826822F070020A4342F007018160704717
:102C300010B5036A046A24F001040462846924F074
:102C4000F00444EA021423F00A020A438461026297
:102C500010BD10B5036A23F0100303628369046A90
:102C600023F4704343EA023224F0A00343EA011143
:102C70008261016210BD10B5406A0021C185C18426
:102C8000FEF7E1FF10BD0168CA6822F49072CA60C5
:102C900001684A6922F001024A61202180F83A1055
:102CA000704710B590F83A10222901D0022010BDCB
:102CB0008168B1F5805F11D00169002901681FD0DA
:102CC000496801F07F03816A4A1C82620B70C18DE2
:102CD000491E0904090CC18518D02BE00269816ADC
:102CE000002A0268526805D0D2B20A80816A491C63
:102CF0008162ECE7C2F308020A80816A891CF7E767
:102D00004A68816A4B1C83620A70E0E70168CA68FE
:102D100022F02002CA600168CA6822F48072CA6088
:102D200001684A6922F001024A61202180F83A10C4
:102D3000FFF7DAF8002010BD2DE9F04104460068E5
:102D40000169E26821F44051114301612169A068E1
:102D50000843616908432168CA6841F20C639A43D9
:102D60000243CA6020684169A26921F4407111439D
:102D700041611E49206864253226884202D1FEF74F
:102D80003FFB01E0FEF72CFB00EBC00101EB001163
:102D900060686FF018078000B1FBF0F2B2FBF5F24B
:102DA000B1FBF0F37A4303EB8202B1FBF0F306EBE5
:102DB0000212B2FBF5F2B3FBF5F302F0F00202EB04
:102DC0000312B1FBF0F3B1FBF0F0B0FBF5F0784388
:102DD00003EB800006EB0010B0FBF5F0216800F07B
:102DE0000F0010448860BDE8F08100000038014009
:102DF00090F83910212901D0022070478168B1F57F
:102E0000805F016A0BD04A1C026202680978516037
:102E1000C18C491E0904090CC1840ED017E0098831
:102E20000268C1F30801516001690029016A02D0FA
:102E3000491C0162ECE7891CFBE70168CA6822F0C3
:102E40008002CA600068C16841F04001C160002092
:102E500070472DE9F041984617460E460446069DF8
:102E60001DE0681C1BD02DB1FEF786F9A0EB080011
:102E7000A84214D92068C16821F4D071C1602068CB
:102E8000416921F001014161202084F8390084F872
:102E90003A00002084F838000320BDE8F081206863
:102EA000006836EA000004D00020B842D9D00020E3
:102EB000F3E70120F9E700000148FEF7C5BE000076
:102EC000B07A00200148FEF7BFBE0000F07A002073
:102ED000FEE700000FB4054B10B503A9044A0298A1
:102EE00000F0CCF810BC5DF814FB00002934000899
:102EF000A80200200FB4084B10B504A902AA039839
:102F000000F0BCF8044602A9002000F093F9204626
:102F100010BC5DF814FB000035320008490050EA8F
:102F2000C12018BF04204A0D18BF40F0010040F234
:102F3000FF72B2EB515F08BF40F00200012808BFEA
:102F4000052070470907090E002804DB00F1E02086
:102F500080F80014704700F00F0000F1E02080F8C6
:102F6000141D70472DE9F0414F1E00EBC7010446C8
:102F7000D1E9000115461E4637F006020DD02A465B
:102F80003346FDF7EEF97F1E04EBC703D3E90023B8
:102F9000FDF740F937F00602F1D1022F25D0042FBA
:102FA00013D0062F18BFBDE8F0812A463346FDF73F
:102FB000D8F9D4E90A23FDF72DF92A463346FDF75F
:102FC000D0F9D4E90823FDF725F92A463346FDF761
:102FD000C8F9D4E90623FDF71DF92A463346FDF763
:102FE000C0F9D4E90423FDF715F92A463346FDF765
:102FF000B8F9D4E90223FDF70DF92A463346FDF767
:10300000B0F9D4E90023BDE8F041FDF703B90000B1
:103010000022134610460149FDF7E0BA0000F03FD8
:10302000FDF7F8B80022134610461146FDF7D6BA50
:1030300040F2013200204FF0E041FDF73EBB0000BE
:10304000024A00201107FDF738BB000001FDFFFF19
:1030500002E008C8121F08C1002AFAD17047704761
:10306000002001E001C1121F002AFBD170470000BF
:103070000149086070470000AC0200202DE9FF4FB5
:103080008BB09A460F460546002606E025280BD051
:1030900052460D9990476D1C761C28780028F5D172
:1030A0000FB03046BDE8F08F0024A04601226049F1
:1030B00000E0044315F8013F203B02FA03F0084208
:1030C000F7D128782E2817D115F8010F44F0040401
:1030D0002A280ED06FF02F022878A0F1300109299C
:1030E0000AD808EB880102EB410100EB01086D1CD6
:1030F000F2E757F8048B6D1C287869283ED006DC6F
:103100000028CDD063280BD0642804D136E0732882
:1031100010D075284BD052460D999047761C85E00B
:1031200017F8040B8DF8000000208DF80100E94627
:10313000012003E057F8049B4FF0FF3061074FF088
:10314000000401D40AE0641C44450DDA8442FADB31
:1031500019F804100029F6D106E0641C8442FCDB57
:1031600019F804100029F8D1264404E019F8010BDD
:1031700052460D999047641EF8D257E001CF4FF0A8
:103180000A0B002802DA40422D2102E0210504D575
:103190002B218DF82410012103E0E10705D0202127
:1031A000F7E70DF1200908910CE00021F9E701CFC4
:1031B0004FF00A0BF9E75946FDF77CF901F13002AF
:1031C00009F8012D0028F6D1ADEB090000F1200B24
:1031D000600701D44FF00108D84502DDA8EB0B00D1
:1031E00000E000208046002406E009A85246005D69
:1031F0000D999047641C761C08988442F5DB04E026
:10320000302052460D999047761CB8F10001A8F184
:103210000108F5DC05E019F8010B52460D999047BD
:10322000761CBBF10001ABF1010BF4DC6D1C34E743
:10323000092801000A68531C0B60107070470000D9
:103240002DE9F05FDFF884900021214889F8001013
:103250004021FCF7B2FFDFF87C801D4FDFF878B02B
:10326000002408F1200600BF36F82400002281B2B5
:103270005846FDF77CFF0A20FDF708FEDFF85CA04A
:10328000002500BF38F8250081B21548FDF76AFF18
:1032900005EBC401785438B999F80000491C0AF8C4
:1032A0000010401C89F800006D1CEDB2082DE9D318
:1032B00036F82400012281B25846FDF758FF641CFD
:1032C000E4B2082CD0D3BDE8F09F000050020020EB
:1032D000B00200200802002000140140A87900205C
:1032E000001C014070B5074D074E0024012235F83F
:1032F000240081B23046FDF73AFF641CE4B2082C8A
:10330000F4D370BD28020020001401402DE9F047DD
:10331000214C012721A06770FFF7DCFD4FF6FF78F5
:10332000434609221DA12048FEF726FEC820FDF7CE
:10333000ADFD1EA12048FCF74BFF0026B8B1257853
:10334000B94612E04346092214A11748FEF714FEBD
:103350006F1CF8B201F024F8A078012819D00228D7
:1033600013D0032815D028B1FDB2402DEAD3A078A0
:10337000022802D06670A67026704346BDE8F0476A
:103380000A220EA10848FEF7F7BD6D1C2570667075
:10339000F3E784F80190E7E7000000204F70656EC6
:1033A00052656C6179000000B07A00204F70656E44
:1033B00052656C61794F4B00307B0020436C6F731A
:1033C0006552656C6179000070B510F0070400D19A
:1033D0000824401EC11700EB5170C1100F48104E59
:1033E00000EB81050022288881B23046FDF7BFFE40
:1033F0000A48203800EB840030F8040C81B20948F8
:10340000FDF7B0FE04462888012281B23046FDF760
:10341000AEFE0CB1002070BD012070BD280200205E
:1034200000140140001C014013B54FF6FF73012248
:1034300069460248FEF7A0FD00981CBDF07A002006
:103440000EB5FDF7A7FEFFF749FBFFF70FFAFFF7F1
:10345000F3F98B4889494FF4E134002580E83200C4
:103460000C26C560C0E904568561C561FEF774FC91
:10347000012284498248FEF70DFD8148824940308F
:1034800080E83200C560C0E904568561C561FEF779
:1034900063FC7C497A480122491C4030FEF7FAFC63
:1034A000FFF7EAFAFFF71EFFFFF7CAFE77A0FFF764
:1034B00011FDDFF8E081784EDFF8E091714C41F2C8
:1034C00088374FF0010A4FF4806BA08AB84204D2CB
:1034D000E1790120FDF7AEF901E0FDF747FA98F830
:1034E000000018B1E1790120FDF7A4F9307818B196
:1034F000022801D0FFF70AFF6079002878D089F808
:1035000000A0658266496571E5815A4601F58060D3
:10351000FCF73AFE59466248FCF74FFE5949EE2047
:1035200016310870891CFF200870891E5D48FCF761
:103530004FFEC8B353495B481831FCF749FE98B3B6
:103540005049584816310290FCF742FE4D4901900F
:1035500018315448FCF73CFE4A4900901831401C91
:10356000FCF736FE00B10090DDE9001088421BD266
:10357000084602994FF6FF72401A801E80B24949F0
:10358000A0830844008840BA6083DDE90001401A46
:10359000C01E81B20198401CFDF7C6F9618B8842BC
:1035A00002D14048FEF76EFD3FA13E48FCF710FEF9
:1035B00008B100F0CDFD40A13A48FCF709FE08B182
:1035C00000F0DCFD3FA13748FCF702FE08B100F037
:1035D000DBFD40A13348FCF7FBFD08B100F04AFEDB
:1035E00041A13048FCF7F4FD08B100F085FE00E091
:1035F00022E041A12B48FCF7EBFD08B100F092FE60
:1036000041A12848FCF7E4FD20B186F800A040A0C5
:10361000FFF760FC41A12348FCF7DAFD18B1A58251
:1036200040A0FFF757FC1749154889F800500122C0
:10363000491C4030FEF72EFC207900283FF445AFAE
:103640000F482571A5813AA18030FCF7C1FD00B17A
:1036500065820B4838A18030FCF7BAFD10B138A064
:10366000FFF738FC064859468030FCF7A6FD0122DA
:1036700004490348FEF70EFC27E70000003801402C
:10368000B07A002078020020004400407265737414
:10369000617274000300002002000020010000207D
:1036A000307F0020308300206F70656E52656C6142
:1036B000794F6E6C790000006F70656E44697370AD
:1036C0006C6179006F70656E4F6E65546F536978E9
:1036D000000000006F70656E4F6E65546F5369781F
:1036E000466F726365000000636C6F736552656CB2
:1036F00061794F6E6C790000636C6F736544697318
:10370000706C617900000000616C6C4F70656E0038
:10371000616C6C4F70656E520000000064697370DC
:103720006C617900646973706C617952000000000B
:103730007265636569766500726573657400000083
:103740006D63752072657365740D0A002DE9F04D87
:1037500016460F4694B01C4621F0004123F000426B
:10376000002814BF4FF0010C4FF0000C0CEB470C7D
:10377000FE4B0CEB03054FEA630C65452BD335007C
:1037800018BF012505EB44051D44F94B9D4222D38A
:10379000F84B52EA060C02D09F4205D148B914B04A
:1037A00000201946BDE8F08D002808BF4FF0000C3E
:1037B00001D04FF0010C0CEB470313F5001F0AD8A2
:1037C000002E14BF4FF0010C4FF0000C0CEB440323
:1037D00013F5001F07D914B0324623463946BDE819
:1037E000F04DFFF71DBCDFF890834FF0000A002F6B
:1037F000B8BF424523DAE14B9A42A8BF4FF0020A14
:103800001DDADC4B93421ADCDD4B03EB2253142B05
:1038100008DDC3F1340C26FA0CF303FA0CFCB445B2
:103820000DD108E05EB9C3F1140C22FA0CF303FACF
:103830000CFC944503D103F00103C3F1020A51EAE1
:1038400000031BD1002C19DA002F18BFBAF1020FA8
:1038500002D0BAF1010F07D00220FFF709FC14B023
:10386000BDE8F04DFFF7D4BB0220FFF701FCFFF7E6
:10387000CFFB14B081F00041BDE8F08D330070D172
:10388000424525D107F1804212F5801201BF002880
:103890000020B84914B008BFBDE8F08DB548884293
:1038A00007DC002CA1BF1846214614B0BDE8F08DFE
:1038B00007E0002CBFBF184684F0004114B0BDE8FB
:1038C000F08DB0497944D1E9000114B0BDE8F08D24
:1038D000DFF8A0C262452AD1002C24DA39B1414573
:1038E00017D1002804BF002002461CD106E040B1D9
:1038F0000220FFF7BDFBFFF79BFB0A46394600F0AD
:10390000D7BA9D4A394614B0002062F31E01BDE8C3
:10391000F08D08DA14B03B46BDE8F04D02460020B9
:103920006146FCF75BBE14B03946BDE8F08D4145F9
:1039300017DAB4F1804F0CD0A4F10053B3F1FF5368
:103940000FD13B1E0DDB14B01946BDE8F04D00F061
:10395000D9BB3B4614B00246BDE8F04D1946FCF712
:1039600000BD050027F000433AD1E1B1414537D110
:10397000002F06DD002CA1BF0020414614B0BDE899
:10398000F08D002F01DD002C1FDB002F16DA002C3C
:1039900014DBBAF1010F4FF0000014BF76497A49E9
:1039A00014B0BDE8F08DBAF1020F18BF002F0CD093
:1039B000BAF1010F09D1002F07DA0BE0002FB8BFD1
:1039C000002C0DDABAF1010F04D0002014B001462A
:1039D000BDE8F08D14B000204FF00041BDE8F08D3F
:1039E0004FF0010808EBE77CCDF814C05CEA0A0C44
:1039F0000DD0DFF898C162457EDDDFF894C1654BDC
:103A0000624512DD8B420ADB002C18DB23E001202B
:103A1000FFF72EFB14B0BDE8F04DFFF703BB554A8E
:103A20008A4202DC002C0ADC15E0994202DA002C02
:103A300011DA04E04F4B994219DD002C0BDD022016
:103A4000FFF716FBFFF7F4FA4B4A14B061F31E02BE
:103A50001146BDE8F08D0220FFF70AFBFFF7F0FAF0
:103A6000444A14B061F31E021146BDE8F08D0022F5
:103A70003946FCF770FC07460D466FF00102FCF773
:103A80001CFE4FF05532444BFCF768FC3A462B467F
:103A9000FCF767FC0022414BFCF760FC80468B463C
:103AA0003A462B4610461946FCF75BFC42465B46FD
:103AB000FCF757FC88460E904FF0C042384B384612
:103AC0002946FCF74EFC83460091364A344B41466A
:103AD0000E98FCF746FC80460191334A334B38463A
:103AE0002946FCF73EFC4246019BFCF734FC0D46A0
:103AF00002460B460C9000E011E058460099FCF796
:103B000089FB002788465A463846009BFCF723FC71
:103B10002B460C9AFCF722FC024600F079B90020F3
:103B2000B1F5801F07DA352228461946FCF7C5FD96
:103B300005466FF0340000EB2150A0F2FF300190F9
:103B4000C1F3130040F07F6141F0405102911849E8
:103B50008842D8BF4FF0000B35DD16498142C8BFFF
:103B60004FF0010B2FDC4FF0000B25E0FFFF1F0093
:103B7000FFFF0F000000F03F0000F07F0000404317
:103B800001FCFFFF180E00000000F0FF0000E04104
:103B90000000F043FFFFEF3F5555D53F0000E03FE9
:103BA0004715F73FFE822B6544DF5DF80BAE543EB0
:103BB0008E9803007AB60B000198401C0190029881
:103BC000A0F580100290FF480299784400EBCB00EA
:103BD0000991D0E9002328460B931292FCF7BBFB16
:103BE00000910A9028460B9B129A0999FCF712FB48
:103BF00002460B460020F449FCF7F0FCCDE90C012D
:103C00000B46024600990A98FCF7ABFB0690EF487A
:103C10008846002778440299006810904FF00050C1
:103C200040EA610000EB8B4000F5002102910B9B04
:103C3000129A1098FCF78FFB2A46099BFCF78EFB23
:103C40003A464346FCF78DFB0891129038464146B0
:103C5000029B109AFCF785FB009B0A9AFCF77EFBFF
:103C6000089B129AFCF777FBDDE90C23FCF779FB44
:103C70000B91069A1290434610461946FCF771FBC9
:103C800005460246D2480B460A9106217844FFF7C2
:103C900069F90A9B2A460891029010461946FCF7DA
:103CA00060FB089B029AFCF75CFB054609914346C2
:103CB00038461946069AFCF7ADFA0B9B129AFCF7A8
:103CC00050FB2A46099BFCF7A5FACDE908013A46C4
:103CD000434610461946FCF744FB0A910022BD4BAF
:103CE0000090FCF797FADDE90823FCF793FA0D46FC
:103CF0003A46B84B3846FCF72EFB0A9B009AFCF775
:103D00002AFBDDE90823FCF729FBCDE908013A4647
:103D10002B4610464146FCF724FB00910A90DDE952
:103D200008014346069AFCF71CFB069088462B4682
:103D30003A460B991298FCF714FB4346069AFCF797
:103D400069FA80460B4602460D9100990A98FCF7E5
:103D500061FA00200F460546009B0A9AFCF7FBFA21
:103D600042460D9BFCF7FAFA88460E904FF06042EF
:103D7000994B28463946FCF7F4FA02910090974A8D
:103D8000954B41460E98FCF7ECFA80460391944A15
:103D9000944B28463946FCF7E4FA4246039BFCF76D
:103DA00039FA914A7A4402EBCB03D3E90023FCF7BA
:103DB00031FA054607910198FCF745FB0C900391F9
:103DC0002A46079B02990098FCF724FA874A7A440E
:103DD00002EBCB03D3E9002393460193FCF71AFAD5
:103DE000039B0C9AFCF716FA002788463846039B7B
:103DF0000C9AFCF7B0FA5A46019BFCF7ACFA029B0E
:103E0000009AFCF7A8FA2A46079BFCF7A7FA024695
:103E10000020069005986C4DAAF10103184301D1CA
:103E2000734D069000200B46049030462146FCF767
:103E300098FA82468B46234630461946049AFCF788
:103E40008AFA3A464346FCF78CFA52465B46FCF740
:103E5000E1F906468A463A46434621460498FCF76D
:103E600080FA04460F4632465346FCF7D3F9614ABE
:103E70008B46914221DBABEB020353EA000210D1E7
:103E800022463B46FCF767FA804603915A4A5B4B51
:103E900030465146FCF7BEF94246039BFCF724FC32
:103EA00027D20220FFF7E4F8FFF7C2F80A462946B6
:103EB00014B062F31E01BDE8F08D514B2BF00042AF
:103EC0009A4216D34F4A0BEB020353EA000208D181
:103ED00022463B46FCF73FFA32465346FCF704FCC9
:103EE00007D80220FFF7C4F8FFF7AAF80A462946C8
:103EF000DEE72BF000404449444A01EB20514FF0EB
:103F00000008824223DA481C4FF4801121FA00F0A5
:103F100058443F4AC0F30A517A443E4BA1F2FF3164
:103F2000CB4020EA0303C0F3130040F4801CC1F12E
:103F3000140012682CFA00F8BBF1000FB8BFC8F1EA
:103F4000000820463946FCF706FA04460F4622468A
:103F50003B4630465146FCF75DF94FF0000B5A46A0
:103F60002D4B58460391FCF7FCF900910A902B4A1F
:103F70002B4B58460399FCF7F4F904910290224622
:103F80003B4658460399FCF7E6F932465346FCF7A0
:103F9000E5F9244A244BFCF7E4F9049B029AFCF768
:103FA00039F907468A46009B0A9AFCF733F904461A
:103FB0000E46009B0A9AFCF7CEF93A465346FCF7A8
:103FC000CDF933E08A0A00000000F03FC80A000083
:103FD000F80900000000084009C7EE3FFD033ADC85
:103FE000F5015B14E02F3EBED008000096080000EB
:103FF0000000F0BF00009040FE822B654715973C03
:1040000000CC904000346F3F01FCFFFF0000E03F18
:10401000C4070000FFFF0F00432EE63F396CA80CD9
:10402000615C20BEEF39FAFE422EE63F074622468B
:1040300033460F9110461946FCF793F98346024622
:104040002E488A460B4605217844FEF78BFF5A46D8
:104050005346FCF786F922463346FCF77FF9824641
:104060008B463A46204631460F9BFCF77AF93A4692
:104070000F9BFCF7CFF80F460A9000224FF08043C9
:1040800050465946FCF767F90391009052465B464B
:1040900020463146FCF765F9039B009AFCF79EFA2F
:1040A0003B460A9AFCF757F922463346FCF753F988
:1040B0000022134BFCF752F90E46044601EB08515F
:1040C0000815002810DC424620463146FCF7F5FA78
:1040D000FEF724FF042808BFFEF7B2FF4246204641
:1040E0003146FCF7EAFA044606980B4614B022461D
:1040F0002946BDE8F04DFCF734B900006C0600001D
:104100000000F03F2DE9F04106460F46FCF716FB94
:1041100004000D4618BF0120284320F00040C0F1E4
:104120007F6000F1E040C00F0ED0301C18BF0120AE
:10413000384320F00040C0F17F6000F1E040C00F44
:1041400004BF0120FEF794FF20462946BDE8F08118
:1041500010B54FF6FF73092204A10748FDF70CFFC5
:10416000BDE81040C820FCF791BE00004F70656E9E
:1041700052656C6179000000B07A0020014901208D
:10418000C87070470000002070B54FF6FF763346C8
:10419000092230A13248FDF7EFFEC820FCF776FE79
:1041A000304C0122A4F58075A08881B26868FCF7C4
:1041B000DEFF2089012281B2A868FCF7D8FF208A9F
:1041C000012281B22869FCF7D2FFA089012281B2C5
:1041D000E868FCF7CCFF2088012281B22868FCF750
:1041E000C6FFA08A012281B26869FCF7C0FF4FF4C4
:1041F0007A70FCF74BFEA088002281B26868FCF759
:10420000B6FF2089002281B2A868FCF7B0FF208A9F
:10421000002281B22869FCF7AAFFA089002281B29E
:10422000E868FCF7A4FF2088002281B22868FCF728
:104230009EFFA08A002281B26869FCF798FF33468E
:104240000A2209A10648FDF797FEBDE87040C82084
:10425000FCF71CBE4F70656E52656C617900000002
:10426000B07A002008010020436C6F736552656CC2
:104270006179000070B54FF6FF73092219A11C483F
:10428000FDF77AFEC820FCF701FE1A4C0122A4F5C6
:104290008075A08881B26868FCF769FF20890122D7
:1042A00081B2A868FCF763FF208A012281B22869E5
:1042B000FCF75DFFA089012281B2E868FCF757FF97
:1042C0002088012281B22868FCF751FFA08A0122D0
:1042D00081B26869FCF74BFFBDE87040C820FCF76D
:1042E000D5BD00004F70656E52656C6179000000AD
:1042F000B07A00200801002010B54FF6FF730A22A3
:1043000004A10748FDF738FEBDE81040C820FCF7BF
:10431000BDBD0000436C6F736552656C6179000030
:10432000B07A002001490020C870704700000020CA
:104330002DE9F0414FF000081748FBF75BFFC6B2CC
:10434000002423E0301B401EFCF77DF802460B469C
:1043500000201249FFF7FAF905460F480F46005DA5
:104360003038FCF770F82A463B46FBF7FAFF054663
:104370000F464046FCF778F82A463B46FBF74AFFD3
:10438000FCF77FF8641C00F0FF08E4B2B442D9D314
:104390004046BDE8F0810000F00600200000244007
:1043A0002DE9F0471E4DDFF87C900446287001226D
:1043B00008214846FCF7DBFE402C2ED81A48012283
:1043C00000EB840737F8040C81B2184800EB840630
:1043D00056F8040CFCF7CBFE14480121083880463F
:1043E000818029780120FCF725FAB8F8040000281C
:1043F000F7D137F8040C002281B256F8040CFCF710
:10440000B6FE00202870024608214846FCF7AFFEA1
:104410002046BDE8F047FEF7D7BF0020BDE8F08793
:104420007F02002000200140080100200800002039
:10443000C0F9A4B0999282F880900000C1C081C1F7
:10444000400101C3C003800241C201C6C00680070B
:1044500041C70005C1C581C4400401CCC00C800D1A
:1044600041CD000FC1CF81CE400E000AC1CA81CB21
:10447000400B01C9C009800841C801D8C018801983
:1044800041D9001BC1DB81DA401A001EC1DE81DF89
:10449000401F01DDC01D801C41DC0014C1D481D54A
:1044A000401501D7C017801641D601D2C012801323
:1044B00041D30011C1D181D0401001F0C030803112
:1044C00041F10033C1F381F240320036C1F681F789
:1044D000403701F5C035803441F4003CC1FC81FD1A
:1044E000403D01FFC03F803E41FE01FAC03A803BA3
:1044F00041FB0039C1F981F840380028C1E881E961
:10450000402901EBC02B802A41EA01EEC02E802F0A
:1045100041EF002DC1ED81EC402C01E4C024802549
:1045200041E50027C1E781E640260022C1E281E3A0
:10453000402301E1C021802041E001A0C0608061F2
:1045400041A10063C1A381A240620066C1A681A708
:10455000406701A5C065806441A4006CC1AC81AD19
:10456000406D01AFC06F806E41AE01AAC06A806B22
:1045700041AB0069C1A981A840680078C1B881B980
:10458000407901BBC07B807A41BA01BEC07E807F8A
:1045900041BF007DC1BD81BC407C01B4C074807549
:1045A00041B50077C1B781B640760072C1B281B320
:1045B000407301B1C071807041B00050C1908191D1
:1045C00040510193C053805241920196C05680578A
:1045D00041970055C19581944054019CC05C805D19
:1045E000419D005FC19F819E405E005AC19A819BA0
:1045F000405B0199C059805841980188C048804962
:104600004189004BC18B818A404A004EC18E818F07
:10461000404F018DC04D804C418C0044C184818548
:1046200040450187C047804641860182C0428043A1
:1046300041830041C18181804040000000000000B2
:10464000000001020304060708090000000001023F
:104650000304000000000000000000000000F03F24
:10466000000000000000F83F000000000000000013
:104670000000004003B8E23F00000000000000001E
:1046800006D0CF43EBFD4C3E033333333333E33FAC
:10469000FFAB6FDBB66DDB3F4D268F515555D53FD8
:1046A00001411DA96074D13F65DBC9934A86CD3FA6
:1046B000EF4E454A287ECA3F3E5555555555C53F94
:1046C00093BDBE166CC166BF2CDE25AF6A56113F86
:1046D000F16BD2C541BDBBBED0A4BE726937663E88
:1046E000000000000000000025637B22636D64224F
:1046F0003A226F7264657250726F636573735222EF
:104700002C22636162696E65744E6F223A25642CB7
:10471000226F726465724E6F223A25732C226F727B
:10472000646572526573756C74223A222573222C6B
:1047300009227474696D65223A25732C22706964AC
:10474000223A25732C22746964223A25732C227232
:104750006573704974656D73223A5B2573000000C0
:1047600025637B22636D64223A22736C6F74436805
:1047700065636B52222C22636162696E65744E6FB1
:10478000223A25642C226661756C74536C6F7449EF
:1047900074656D73223A5B7B22736C6F744E6F226B
:1047A0003A25642C226661756C74526561736F6E74
:1047B000223A226469736C6F63617465227D000024
:1047C00025637B22636D64223A226865616C74689C
:1047D000436865636B52222C22636162696E657463
:1047E0004E6F223A25642C22726573756C74223ADE
:1047F000226F6B222C22706964223A25732C22745A
:104800006964223A25732C227474696D65223A25F5
:10481000737D000025637B22636D64223A22736CF2
:104820006F74436865636B52222C22636162696E08
:1048300065744E6F223A25642C226661756C745340
:104840006C6F744974656D73223A5B5D2C227069DC
:1048500064223A25732C22746964223A25732C222F
:104860007474696D65223A25737D00008C480008D8
:1048700000000020B0020000DE0700081049000818
:10488000B00200208089000060300008910C1318ED
:104890000140040A190C040A1920040A1D14049A80
:1048A00010049A0854091688A90469640A111C04A2
:1048B000A9A0A960E904A9801904322032103208A5
:1048C000320432024201590932803240A9280913C8
:1048D00015593D09191B4958A915292DA90C091964
:1048E00039291F794409112CA9646917E92729205E
:1048F000E9902904290C2914291C29282930293850
:104900002940092021014E296F2963519324F40085
:0400000508000131BD
:00000001FF
